{
  "contractName": "Voting",
  "abi": [
    {
      "anonymous": false,
      "inputs": [
        {
          "indexed": false,
          "internalType": "uint256",
          "name": "id",
          "type": "uint256"
        },
        {
          "indexed": false,
          "internalType": "string",
          "name": "name",
          "type": "string"
        },
        {
          "indexed": false,
          "internalType": "string",
          "name": "image",
          "type": "string"
        },
        {
          "indexed": false,
          "internalType": "string",
          "name": "manifesto",
          "type": "string"
        }
      ],
      "name": "CandidateRegistered",
      "type": "event"
    },
    {
      "anonymous": false,
      "inputs": [
        {
          "indexed": false,
          "internalType": "address",
          "name": "voter",
          "type": "address"
        },
        {
          "indexed": false,
          "internalType": "uint256",
          "name": "candidateId",
          "type": "uint256"
        }
      ],
      "name": "VoteCasted",
      "type": "event"
    },
    {
      "inputs": [],
      "name": "candidateCount",
      "outputs": [
        {
          "internalType": "uint256",
          "name": "",
          "type": "uint256"
        }
      ],
      "stateMutability": "view",
      "type": "function",
      "constant": true
    },
    {
      "inputs": [
        {
          "internalType": "uint256",
          "name": "",
          "type": "uint256"
        }
      ],
      "name": "candidates",
      "outputs": [
        {
          "internalType": "uint256",
          "name": "id",
          "type": "uint256"
        },
        {
          "internalType": "string",
          "name": "name",
          "type": "string"
        },
        {
          "internalType": "string",
          "name": "image",
          "type": "string"
        },
        {
          "internalType": "string",
          "name": "manifesto",
          "type": "string"
        },
        {
          "internalType": "uint256",
          "name": "voteCount",
          "type": "uint256"
        }
      ],
      "stateMutability": "view",
      "type": "function",
      "constant": true
    },
    {
      "inputs": [
        {
          "internalType": "string",
          "name": "_name",
          "type": "string"
        },
        {
          "internalType": "string",
          "name": "_image",
          "type": "string"
        },
        {
          "internalType": "string",
          "name": "_manifesto",
          "type": "string"
        }
      ],
      "name": "registerCandidate",
      "outputs": [],
      "stateMutability": "nonpayable",
      "type": "function"
    },
    {
      "inputs": [
        {
          "internalType": "uint256",
          "name": "_candidateId",
          "type": "uint256"
        }
      ],
      "name": "vote",
      "outputs": [],
      "stateMutability": "nonpayable",
      "type": "function"
    },
    {
      "inputs": [
        {
          "internalType": "uint256",
          "name": "_id",
          "type": "uint256"
        }
      ],
      "name": "getCandidate",
      "outputs": [
        {
          "internalType": "uint256",
          "name": "id",
          "type": "uint256"
        },
        {
          "internalType": "string",
          "name": "name",
          "type": "string"
        },
        {
          "internalType": "string",
          "name": "image",
          "type": "string"
        },
        {
          "internalType": "string",
          "name": "manifesto",
          "type": "string"
        },
        {
          "internalType": "uint256",
          "name": "voteCount",
          "type": "uint256"
        }
      ],
      "stateMutability": "view",
      "type": "function",
      "constant": true
    },
    {
      "inputs": [],
      "name": "getCandidatesCount",
      "outputs": [
        {
          "internalType": "uint256",
          "name": "",
          "type": "uint256"
        }
      ],
      "stateMutability": "view",
      "type": "function",
      "constant": true
    },
    {
      "inputs": [],
      "name": "getAllCandidates",
      "outputs": [
        {
          "internalType": "uint256[]",
          "name": "ids",
          "type": "uint256[]"
        },
        {
          "internalType": "string[]",
          "name": "names",
          "type": "string[]"
        },
        {
          "internalType": "string[]",
          "name": "images",
          "type": "string[]"
        },
        {
          "internalType": "string[]",
          "name": "manifestos",
          "type": "string[]"
        },
        {
          "internalType": "uint256[]",
          "name": "voteCounts",
          "type": "uint256[]"
        }
      ],
      "stateMutability": "view",
      "type": "function",
      "constant": true
    },
    {
      "inputs": [
        {
          "internalType": "address",
          "name": "_voter",
          "type": "address"
        }
      ],
      "name": "getVoter",
      "outputs": [
        {
          "internalType": "bool",
          "name": "hasVoted",
          "type": "bool"
        },
        {
          "internalType": "uint256",
          "name": "voteTo",
          "type": "uint256"
        }
      ],
      "stateMutability": "view",
      "type": "function",
      "constant": true
    }
  ],
  "bytecode": "0x608060405234801561000f575f80fd5b506119438061001d5f395ff3fe608060405234801561000f575f80fd5b5060043610610086575f3560e01c806335c3c8761161005957806335c3c87614610130578063a9a981a31461014c578063bb9aa28f1461016a578063d4f50f981461018857610086565b80630121b93f1461008a5780632e6997fe146100a65780633477ee2e146100c857806335b8e820146100fc575b5f80fd5b6100a4600480360381019061009f9190610e0b565b6101b9565b005b6100ae610378565b6040516100bf959493929190611032565b60405180910390f35b6100e260048036038101906100dd9190610e0b565b610821565b6040516100f39594939291906110fd565b60405180910390f35b61011660048036038101906101119190610e0b565b6109e4565b6040516101279594939291906110fd565b60405180910390f35b61014a6004803603810190610145919061128f565b610c48565b005b610154610d35565b6040516101619190611333565b60405180910390f35b610172610d3b565b60405161017f9190611333565b60405180910390f35b6101a2600480360381019061019d91906113a6565b610d44565b6040516101b09291906113eb565b60405180910390f35b60015f3373ffffffffffffffffffffffffffffffffffffffff1673ffffffffffffffffffffffffffffffffffffffff1681526020019081526020015f205f015f9054906101000a900460ff1615610245576040517f08c379a000000000000000000000000000000000000000000000000000000000815260040161023c9061145c565b60405180910390fd5b5f8111801561025657506002548111155b610295576040517f08c379a000000000000000000000000000000000000000000000000000000000815260040161028c906114c4565b60405180910390fd5b5f808281526020019081526020015f206004015f8154809291906102b89061150f565b919050555060405180604001604052806001151581526020018281525060015f3373ffffffffffffffffffffffffffffffffffffffff1673ffffffffffffffffffffffffffffffffffffffff1681526020019081526020015f205f820151815f015f6101000a81548160ff021916908315150217905550602082015181600101559050507fd0e6c39f2e086dc49f1524b47725526a56945cd1ff661f37976f1725a1e56986338260405161036d929190611565565b60405180910390a150565b60608060608060605f60025467ffffffffffffffff81111561039d5761039c61116b565b5b6040519080825280602002602001820160405280156103cb5781602001602082028036833780820191505090505b5090505f60025467ffffffffffffffff8111156103eb576103ea61116b565b5b60405190808252806020026020018201604052801561041e57816020015b60608152602001906001900390816104095790505b5090505f60025467ffffffffffffffff81111561043e5761043d61116b565b5b60405190808252806020026020018201604052801561047157816020015b606081526020019060019003908161045c5790505b5090505f60025467ffffffffffffffff8111156104915761049061116b565b5b6040519080825280602002602001820160405280156104c457816020015b60608152602001906001900390816104af5790505b5090505f60025467ffffffffffffffff8111156104e4576104e361116b565b5b6040519080825280602002602001820160405280156105125781602001602082028036833780820191505090505b5090505f600190505b6002548111610805575f805f8381526020019081526020015f206040518060a00160405290815f8201548152602001600182018054610559906115b9565b80601f0160208091040260200160405190810160405280929190818152602001828054610585906115b9565b80156105d05780601f106105a7576101008083540402835291602001916105d0565b820191905f5260205f20905b8154815290600101906020018083116105b357829003601f168201915b505050505081526020016002820180546105e9906115b9565b80601f0160208091040260200160405190810160405280929190818152602001828054610615906115b9565b80156106605780601f1061063757610100808354040283529160200191610660565b820191905f5260205f20905b81548152906001019060200180831161064357829003601f168201915b50505050508152602001600382018054610679906115b9565b80601f01602080910402602001604051908101604052809291908181526020018280546106a5906115b9565b80156106f05780601f106106c7576101008083540402835291602001916106f0565b820191905f5260205f20905b8154815290600101906020018083116106d357829003601f168201915b505050505081526020016004820154815250509050805f01518760018461071791906115e9565b815181106107285761072761161c565b5b60200260200101818152505080602001518660018461074791906115e9565b815181106107585761075761161c565b5b602002602001018190525080604001518560018461077691906115e9565b815181106107875761078661161c565b5b60200260200101819052508060600151846001846107a591906115e9565b815181106107b6576107b561161c565b5b60200260200101819052508060800151836001846107d491906115e9565b815181106107e5576107e461161c565b5b6020026020010181815250505080806107fd9061150f565b91505061051b565b5084848484849950995099509950995050505050509091929394565b5f602052805f5260405f205f91509050805f015490806001018054610845906115b9565b80601f0160208091040260200160405190810160405280929190818152602001828054610871906115b9565b80156108bc5780601f10610893576101008083540402835291602001916108bc565b820191905f5260205f20905b81548152906001019060200180831161089f57829003601f168201915b5050505050908060020180546108d1906115b9565b80601f01602080910402602001604051908101604052809291908181526020018280546108fd906115b9565b80156109485780601f1061091f57610100808354040283529160200191610948565b820191905f5260205f20905b81548152906001019060200180831161092b57829003601f168201915b50505050509080600301805461095d906115b9565b80601f0160208091040260200160405190810160405280929190818152602001828054610989906115b9565b80156109d45780601f106109ab576101008083540402835291602001916109d4565b820191905f5260205f20905b8154815290600101906020018083116109b757829003601f168201915b5050505050908060040154905085565b5f60608060605f80861180156109fc57506002548611155b610a3b576040517f08c379a0000000000000000000000000000000000000000000000000000000008152600401610a32906114c4565b60405180910390fd5b5f805f8881526020019081526020015f206040518060a00160405290815f8201548152602001600182018054610a70906115b9565b80601f0160208091040260200160405190810160405280929190818152602001828054610a9c906115b9565b8015610ae75780601f10610abe57610100808354040283529160200191610ae7565b820191905f5260205f20905b815481529060010190602001808311610aca57829003601f168201915b50505050508152602001600282018054610b00906115b9565b80601f0160208091040260200160405190810160405280929190818152602001828054610b2c906115b9565b8015610b775780601f10610b4e57610100808354040283529160200191610b77565b820191905f5260205f20905b815481529060010190602001808311610b5a57829003601f168201915b50505050508152602001600382018054610b90906115b9565b80601f0160208091040260200160405190810160405280929190818152602001828054610bbc906115b9565b8015610c075780601f10610bde57610100808354040283529160200191610c07565b820191905f5260205f20905b815481529060010190602001808311610bea57829003601f168201915b505050505081526020016004820154815250509050805f01518160200151826040015183606001518460800151955095509550955095505091939590929450565b60025f815480929190610c5a9061150f565b91905055506040518060a0016040528060025481526020018481526020018381526020018281526020015f8152505f8060025481526020019081526020015f205f820151815f01556020820151816001019081610cb791906117e6565b506040820151816002019081610ccd91906117e6565b506060820151816003019081610ce391906117e6565b50608082015181600401559050507fb76aadacec2d73468ab4c03b3976f369439578b697493e0b3596ae94726d8404600254848484604051610d2894939291906118b5565b60405180910390a1505050565b60025481565b5f600254905090565b5f805f60015f8573ffffffffffffffffffffffffffffffffffffffff1673ffffffffffffffffffffffffffffffffffffffff1681526020019081526020015f206040518060400160405290815f82015f9054906101000a900460ff161515151581526020016001820154815250509050805f015181602001519250925050915091565b5f604051905090565b5f80fd5b5f80fd5b5f819050919050565b610dea81610dd8565b8114610df4575f80fd5b50565b5f81359050610e0581610de1565b92915050565b5f60208284031215610e2057610e1f610dd0565b5b5f610e2d84828501610df7565b91505092915050565b5f81519050919050565b5f82825260208201905092915050565b5f819050602082019050919050565b610e6881610dd8565b82525050565b5f610e798383610e5f565b60208301905092915050565b5f602082019050919050565b5f610e9b82610e36565b610ea58185610e40565b9350610eb083610e50565b805f5b83811015610ee0578151610ec78882610e6e565b9750610ed283610e85565b925050600181019050610eb3565b5085935050505092915050565b5f81519050919050565b5f82825260208201905092915050565b5f819050602082019050919050565b5f81519050919050565b5f82825260208201905092915050565b5f5b83811015610f4d578082015181840152602081019050610f32565b5f8484015250505050565b5f601f19601f8301169050919050565b5f610f7282610f16565b610f7c8185610f20565b9350610f8c818560208601610f30565b610f9581610f58565b840191505092915050565b5f610fab8383610f68565b905092915050565b5f602082019050919050565b5f610fc982610eed565b610fd38185610ef7565b935083602082028501610fe585610f07565b805f5b8581101561102057848403895281516110018582610fa0565b945061100c83610fb3565b925060208a01995050600181019050610fe8565b50829750879550505050505092915050565b5f60a0820190508181035f83015261104a8188610e91565b9050818103602083015261105e8187610fbf565b905081810360408301526110728186610fbf565b905081810360608301526110868185610fbf565b9050818103608083015261109a8184610e91565b90509695505050505050565b6110af81610dd8565b82525050565b5f82825260208201905092915050565b5f6110cf82610f16565b6110d981856110b5565b93506110e9818560208601610f30565b6110f281610f58565b840191505092915050565b5f60a0820190506111105f8301886110a6565b818103602083015261112281876110c5565b9050818103604083015261113681866110c5565b9050818103606083015261114a81856110c5565b905061115960808301846110a6565b9695505050505050565b5f80fd5b5f80fd5b7f4e487b71000000000000000000000000000000000000000000000000000000005f52604160045260245ffd5b6111a182610f58565b810181811067ffffffffffffffff821117156111c0576111bf61116b565b5b80604052505050565b5f6111d2610dc7565b90506111de8282611198565b919050565b5f67ffffffffffffffff8211156111fd576111fc61116b565b5b61120682610f58565b9050602081019050919050565b828183375f83830152505050565b5f61123361122e846111e3565b6111c9565b90508281526020810184848401111561124f5761124e611167565b5b61125a848285611213565b509392505050565b5f82601f83011261127657611275611163565b5b8135611286848260208601611221565b91505092915050565b5f805f606084860312156112a6576112a5610dd0565b5b5f84013567ffffffffffffffff8111156112c3576112c2610dd4565b5b6112cf86828701611262565b935050602084013567ffffffffffffffff8111156112f0576112ef610dd4565b5b6112fc86828701611262565b925050604084013567ffffffffffffffff81111561131d5761131c610dd4565b5b61132986828701611262565b9150509250925092565b5f6020820190506113465f8301846110a6565b92915050565b5f73ffffffffffffffffffffffffffffffffffffffff82169050919050565b5f6113758261134c565b9050919050565b6113858161136b565b811461138f575f80fd5b50565b5f813590506113a08161137c565b92915050565b5f602082840312156113bb576113ba610dd0565b5b5f6113c884828501611392565b91505092915050565b5f8115159050919050565b6113e5816113d1565b82525050565b5f6040820190506113fe5f8301856113dc565b61140b60208301846110a6565b9392505050565b7f596f75206861766520616c726561647920766f7465642e0000000000000000005f82015250565b5f6114466017836110b5565b915061145182611412565b602082019050919050565b5f6020820190508181035f8301526114738161143a565b9050919050565b7f496e76616c69642063616e6469646174652049442e00000000000000000000005f82015250565b5f6114ae6015836110b5565b91506114b98261147a565b602082019050919050565b5f6020820190508181035f8301526114db816114a2565b9050919050565b7f4e487b71000000000000000000000000000000000000000000000000000000005f52601160045260245ffd5b5f61151982610dd8565b91507fffffffffffffffffffffffffffffffffffffffffffffffffffffffffffffffff820361154b5761154a6114e2565b5b600182019050919050565b61155f8161136b565b82525050565b5f6040820190506115785f830185611556565b61158560208301846110a6565b9392505050565b7f4e487b71000000000000000000000000000000000000000000000000000000005f52602260045260245ffd5b5f60028204905060018216806115d057607f821691505b6020821081036115e3576115e261158c565b5b50919050565b5f6115f382610dd8565b91506115fe83610dd8565b9250828203905081811115611616576116156114e2565b5b92915050565b7f4e487b71000000000000000000000000000000000000000000000000000000005f52603260045260245ffd5b5f819050815f5260205f209050919050565b5f6020601f8301049050919050565b5f82821b905092915050565b5f600883026116a57fffffffffffffffffffffffffffffffffffffffffffffffffffffffffffffffff8261166a565b6116af868361166a565b95508019841693508086168417925050509392505050565b5f819050919050565b5f6116ea6116e56116e084610dd8565b6116c7565b610dd8565b9050919050565b5f819050919050565b611703836116d0565b61171761170f826116f1565b848454611676565b825550505050565b5f90565b61172b61171f565b6117368184846116fa565b505050565b5b818110156117595761174e5f82611723565b60018101905061173c565b5050565b601f82111561179e5761176f81611649565b6117788461165b565b81016020851015611787578190505b61179b6117938561165b565b83018261173b565b50505b505050565b5f82821c905092915050565b5f6117be5f19846008026117a3565b1980831691505092915050565b5f6117d683836117af565b9150826002028217905092915050565b6117ef82610f16565b67ffffffffffffffff8111156118085761180761116b565b5b61181282546115b9565b61181d82828561175d565b5f60209050601f83116001811461184e575f841561183c578287015190505b61184685826117cb565b8655506118ad565b601f19841661185c86611649565b5f5b828110156118835784890151825560018201915060208501945060208101905061185e565b868310156118a0578489015161189c601f8916826117af565b8355505b6001600288020188555050505b505050505050565b5f6080820190506118c85f8301876110a6565b81810360208301526118da81866110c5565b905081810360408301526118ee81856110c5565b9050818103606083015261190281846110c5565b90509594505050505056fea26469706673582212205d8a9c9eea9d93527b474a62d8d71e7fc6555271ffa2342a5ee1d654aeef5e4164736f6c63430008150033",
  "immutableReferences": {},
  "source": "// SPDX-License-Identifier: MIT\r\npragma solidity ^0.8.0;\r\n\r\ncontract Voting {\r\n    struct Candidate {\r\n        uint id;\r\n        string name;\r\n        string image;\r\n        string manifesto;\r\n        uint voteCount;\r\n    }\r\n\r\n    struct Voter {\r\n        bool hasVoted;\r\n        uint voteTo;\r\n    }\r\n\r\n    mapping(uint => Candidate) public candidates;\r\n    mapping(address => Voter) private voters;\r\n\r\n    uint public candidateCount;\r\n\r\n    event CandidateRegistered(uint id, string name, string image, string manifesto);\r\n    event VoteCasted(address voter, uint candidateId);\r\n\r\n    function registerCandidate(\r\n        string memory _name,\r\n        string memory _image,\r\n        string memory _manifesto\r\n    ) public {\r\n        candidateCount++;\r\n        candidates[candidateCount] = Candidate(candidateCount, _name, _image, _manifesto, 0);\r\n        emit CandidateRegistered(candidateCount, _name, _image, _manifesto);\r\n    }\r\n\r\n    function vote(uint _candidateId) public {\r\n        require(!voters[msg.sender].hasVoted, \"You have already voted.\");\r\n        require(_candidateId > 0 && _candidateId <= candidateCount, \"Invalid candidate ID.\");\r\n        candidates[_candidateId].voteCount++;\r\n        voters[msg.sender] = Voter(true, _candidateId);\r\n        emit VoteCasted(msg.sender, _candidateId);\r\n    }\r\n\r\n    function getCandidate(uint _id) public view returns (\r\n        uint id,\r\n        string memory name,\r\n        string memory image,\r\n        string memory manifesto,\r\n        uint voteCount\r\n    ) {\r\n        require(_id > 0 && _id <= candidateCount, \"Invalid candidate ID.\");\r\n        Candidate memory candidate = candidates[_id];\r\n        return (\r\n            candidate.id,\r\n            candidate.name,\r\n            candidate.image,\r\n            candidate.manifesto,\r\n            candidate.voteCount\r\n        );\r\n    }\r\n\r\n    function getCandidatesCount() public view returns (uint) {\r\n        return candidateCount;\r\n    }\r\n\r\n    function getAllCandidates() public view returns (\r\n        uint[] memory ids,\r\n        string[] memory names,\r\n        string[] memory images,\r\n        string[] memory manifestos,\r\n        uint[] memory voteCounts\r\n    ) {\r\n        uint[] memory idsArray = new uint[](candidateCount);\r\n        string[] memory namesArray = new string[](candidateCount);\r\n        string[] memory imagesArray = new string[](candidateCount);\r\n        string[] memory manifestosArray = new string[](candidateCount);\r\n        uint[] memory voteCountsArray = new uint[](candidateCount);\r\n\r\n        for (uint i = 1; i <= candidateCount; i++) {\r\n            Candidate memory candidate = candidates[i];\r\n            idsArray[i - 1] = candidate.id;\r\n            namesArray[i - 1] = candidate.name;\r\n            imagesArray[i - 1] = candidate.image;\r\n            manifestosArray[i - 1] = candidate.manifesto;\r\n            voteCountsArray[i - 1] = candidate.voteCount;\r\n        }\r\n\r\n        return (idsArray, namesArray, imagesArray, manifestosArray, voteCountsArray);\r\n    }\r\n\r\n    function getVoter(address _voter) public view returns (bool hasVoted, uint voteTo) {\r\n        Voter memory voter = voters[_voter];\r\n        return (voter.hasVoted, voter.voteTo);\r\n    }\r\n}\r\n",
  "sourcePath": "C:\\Users\\irako\\voting_app\\contracts\\Voting.sol",
  "compiler": {
    "name": "solc",
    "version": "0.8.21+commit.d9974bed.Emscripten.clang"
  },
  "schemaVersion": "3.4.16",
  "updatedAt": "2025-01-04T17:19:50.114Z",
  "networkType": "ethereum",
  "devdoc": {
    "kind": "dev",
    "methods": {},
    "version": 1
  },
  "userdoc": {
    "kind": "user",
    "methods": {},
    "version": 1
  }
}